:020000040000fa
:10000000f81f002041020000050500000705000060
:1000100000000000000000000000000000000000e0
:10002000000000000000000000000000bb04000011
:100030000000000000000000bb0400008504000078
:10004000bb040000bb040000bb040000bb040000b4
:10005000bb040000bb040000bb040000bb040000a4
:10006000bb040000bb040000bb040000bb04000094
:10007000bb040000bb040000bb040000bb04000084
:10008000bb040000bb040000bb040000bb04000074
:10009000bb040000bb040000bb040000bb04000064
:1000a000bb040000bb040000bb040000bb04000054
:1000b000bb040000bb040000bb040000bb04000044
:1000c000bb040000bb040000bb040000bb04000034
:1000d000bb040000bb040000bb040000bb04000024
:1000e000bb040000bb040000bb040000bb04000014
:0400f000bb0400004d
:020000040000fa
:1000f400f8b5c046f8bc08bc9e46704741030000f2
:10010400f8b5c046f8bc08bc9e4670471d03000005
:020000040000fa
:100114000222234b1a760022224b1a74224a234bc2
:100124005a62190008224b681a42fcd141218023eb
:100134001e4ad15010008021402243581a42fcd05c
:10014400174b20225a633f221a6318003c210422d1
:10015400435c1342fcd102212c23114ad1541000d8
:100164003c210222435c1342fcd10d48402103226e
:10017400435c1340032bfbd10d4a0c4b1a6219004c
:1001840004224b681a42fcd14021ac23074ad150c7
:100194001000ac21402243581a42fcd07047c0469c
:1001a400001000400014004005010400001c004041
:0401b400070102003d
:020000040000fa
:1001b8001e4a1f4b70b50021934203d219700133b8
:1001c8009342fbd1002503261a4803684168b3b956
:1001d80059b383680c30bbb100230022845c9c5463
:1001e80001328a42fad333000b405a1e93418908e0
:1001f80059188900401803684168002be8d08268c4
:100208000c303ab90029e0d059181d7001338b42df
:10021800fbd1dae70029e0d133000b405a1e9341a5
:100228008908591889004018e5e770bd0c000020be
:08023800000000206404000036
:020000040000fa
:1002400010b50c4b03b198470b4b03b19847fff720
:10025000b3ff0a4a7f210a4b8b439360094b9847af
:10026000094b03b19847094b03b1984700f034f8a4
:10027000fee7c046000000000000000000ed00e0c6
:1002800000000000910200000000000000000000db
:020000040000fa
:1002900070b500260c4d0d4c641ba410a64209d16c
:1002a0000026fff727ff0a4d0a4c641ba410a64244
:1002b00005d170bdb300eb5898470136eee7b300a7
:1002c000eb5898470136f2e70001000000010000fa
:0802d000000100000401000020
:020000040000fa
:1002d80010b582b0002000f073f800210c4800f03f
:1002e80001f900f0e7f848f200031b6883f38888f7
:1002f80048f204031b680193019c64086400200011
:1003080021002200230000f041f8012002b010bdb6
:04031800e1040000fc
:020000040000fa
:10031c0010b5054c237833b9044b13b1044800e0f5
:10032c0000bf0123237010bd0c0000200000000052
:10033c0000000000034b10b51bb10349034800e05b
:10034c0000bf10bd000000001000002000000000e5
:020000040000fa
:10035c000a4b0b4a1a600b4a9a81c02292025a60cd
:10036c001a00d369002bfcd1044a136802210b43f9
:10037c001360d369002bfcd17047c04600040042c7
:08038c000401314041f1ffffc3
:020000040000fa
:10039400e0b545464e465746e0b45d4620b4254692
:1003a40026462746a046a146a246a346a44684f371
:1003b4000088a44720bcab46e0bcba46b146a84678
:0203c400e0bd9a
:020000040000fa
:0203c60070477e
:020000040000fa
:1003c80010b50422094b5a6000f012f800f022f828
:1003d800fff79cfe00f078f8fff7f1fffff7baff90
:1003e80000f02af800f084f810bdc0460050004123
:020000040000fa
:1003f800074b00221a819a7901210a439a71022235
:100408009a70190001228b791342fcd07047c046bc
:04041800000400409c
:020000040000fa
:10041c00074b80221a601a61012258215a54592123
:10042c005a5422213c2299540022da667047c04665
:04043c00003200404a
:020000040000fa
:10044000054a00231360936004495160062111603e
:10045000034a93601360704710e000e0ff23f4004c
:040460000000002078
:020000040000fa
:100464000c0000201c000000000000000000002020
:100474000c0000000000000000000000000000006c
:020000040000fa
:1004840010b5054b9a6801329a601b6813b1024a91
:0c0494005068984710bdc04600000020d2
:020000040000fa
:1004a00010b500f02df8010002000300844610bcd6
:0a04b00002bc864681f300880c4769
:020000040000fa
:0204ba00fee75b
:020000040000fa
:1004bc00034b00229a601a6801210a431a607047a4
:0404cc0010e000e05c
:020000040000fa
:1004d000024b02225a6001221a72704700500041fa
:020000040000fa
:0c04e0008022014bda61704700320040be
:020000040000fa
:0c04ec00014b18605960704700000020b0
:020000040000fa
:0804f800bff35f8f62b670478d
:020000040000fa
:0405000040187047e8
:020000040000fa
:02050400fee710
:020000040000fa
:02050600fee70e
:020000040000fa
:087e00007fe97fe9f8f74cbbb4
:020000040000fa
:0200000400807a
:044000007f43ffb14a
:020000040000fa
:0200000400807a
:04400400bbfcffff03
:020000040000fa
:0200000400807a
:0440080080d0f8c0ac
:020000040000fa
:0200000400807a
:04400c00ffffffffb4
:020000040000fa
:0200000400807a
:0440100000000000ac
:020000040000fa
:0200000400807a
:0440140000000000a8
:020000040000fa
:0200000400807a
:0440180000000000a4
:020000040000fa
:0200000400807a
:04401c001e65338466
:020000040000fa
:0200000400807a
:04c00000ff00c0a0dd
:020000040000fa
:0200000400807a
:04c0040000ffffff3b
:020000040000fa
:0200000400807a
:04c008004081e7ddaf
:020000040000fa
:0200000400807a
:04c01000ffffffff30
:020000040000fa
:0200000400807a
:04c01400ffffffff2c
:020000040000fa
:0200000400807a
:04c01800ffffffff28
:020000040000fa
:0200000400807a
:04c01c00ffffffff24
:020000040000fa
:0200000400807a
:04c02000ffffffff20
:020000040000fa
:0200000400807a
:04c02400ffffffff1c
:020000040000fa
:0200000400807a
:04c02800ffffffff18
:020000040000fa
:0200000400807a
:04c02c00ffffffff14
:020000040000fa
:0200000400807a
:04c03000ffffffff10
:020000040000fa
:0200000400807a
:04c03400ffffffff0c
:020000040000fa
:0200000400807a
:04c03800ffffffff08
:020000040000fa
:0200000400807a
:04c03c00ffffffff04
:020000040000fa
:0200000400807a
:04c04000ffffffff00
:020000040000fa
:0200000400807a
:04c04400fffffffffc
:020000040000fa
:0200000400807a
:04c04800fffffffff8
:020000040000fa
:0200000400807a
:04c04c00fffffffff4
:020000040000fa
:0200000400807a
:04c05000fffffffff0
:020000040000fa
:0200000400807a
:04c05400ffffffffec
:020000040000fa
:0200000400807a
:04c05800ffffffffe8
:020000040000fa
:0200000400807a
:04c05c00ffffffffe4
:020000040000fa
:0200000400807a
:04c06000ffffffffe0
:020000040000fa
:0200000400807a
:04c06400ffffffffdc
:020000040000fa
:0200000400807a
:04c06800ffffffffd8
:020000040000fa
:0200000400807a
:04c06c00ffffffffd4
:020000040000fa
:0200000400807a
:04c0e000ffffffff60
:020000040000fa
:0200000400807a
:04c0e400ffffffff5c
:020000040000fa
:0200000400807a
:04c0e800ffffffff58
:020000040000fa
:0200000400807a
:04c0ec00ffffffff54
:020000040000fa
:0200000400807a
:04c0f000ffffffff50
:020000040000fa
:0200000400807a
:04c0f400ffffffff4c
:020000040000fa
:0200000400807a
:04c0f800ffffffff48
:020000040000fa
:0200000400807a
:04c0fc00ffffffff44
:00000001FF
