:020000040000fa
:10800000f83f00209d810000e9820000eb82000023
:108010000000000000000000000000000000000060
:10802000000000000000000000000000e7820000e7
:108030000000000000000000e7820000b98200009c
:108040000000000000000000000000000000000030
:108050000000000000000000000000000000000020
:108060000000000000000000000000000000000010
:108070000000000000000000000000000000000000
:1080800000000000000000000000000000000000f0
:1080900000000000000000000000000000000000e0
:1080a00000000000000000000000000000000000d0
:1080b00000000000000000000000000000000000c0
:1080c00000000000000000000000000000000000b0
:1080d00000000000000000000000000000000000a0
:1080e0000000000000000000000000000000000090
:0480f000000000008c
:020000040000fa
:1080f400f8b5c046f8bc08bc9e46704759820000db
:10810400f8b5c046f8bc08bc9e46704735820000ee
:020000040000fa
:108114001e4a1f4b70b50021934203d219700133dc
:108124009342fbd1002503261a4803684168b3b97a
:1081340059b383680c30bbb100230022845c9c5487
:1081440001328a42fad333000b405a1e9341890804
:1081540059188900401803684168002be8d08268e8
:108164000c303ab90029e0d059181d7001338b4204
:10817400fbd1dae70029e0d133000b405a1e9341ca
:108184008908591889004018e5e770bd0c200020c3
:08819400002000209882000089
:020000040000fa
:10819c0010b50c4b03b198470b4b03b19847fff745
:1081ac00b3ff0a4a7f210a4b8b439360094b9847d4
:1081bc00094b03b19847094b03b1984700f084f879
:1081cc00fee7c046000000000000000000ed00e0eb
:1081dc0000800000ed8100000000000000000000a5
:020000040000fa
:1081ec0070b500260c4d0d4c641ba410a64209d191
:1081fc000026fff779ff0a4d0a4c641ba410a64217
:10820c0005d170bdb300eb5898470136eee7b300cb
:10821c00eb5898470136f2e700810000008100001e
:08822c00008100000481000044
:020000040000fa
:1082340010b5054c237833b9044b13b1044800e05e
:1082440000bf0123237010bd0c200020000000009b
:1082540000000000034b10b51bb10349034800e0c4
:1082640000bf10bd0000000010200020000000002e
:020000040000fa
:10827400064a00231360936047f6ff4151600621cc
:108284001160034a936013607047c04610e000e039
:0482940000200020a6
:020000040000fa
:108298000c2000201c00000000000000002000202e
:1082a8000c000000000000000000000000000000ba
:020000040000fa
:1082b80010b5054b9a6801329a601b6813b1024adf
:0c82c8005068984710bdc0460020002000
:020000040000fa
:0a82d40010b5002000f001f8fee7ed
:020000040000fa
:0882de0010b5fff7c8ff10bd49
:020000040000fa
:0282e600fee7b1
:020000040000fa
:0282e800fee7af
:020000040000fa
:0282ea00fee7ad
:00000001FF
